{
  "address": "0x5FbDB2315678afecb367f032d93F642f64180aa3",
  "abi": [
    {
      "inputs": [
        {
          "internalType": "uint256",
          "name": "_minmumContirbution",
          "type": "uint256"
        }
      ],
      "stateMutability": "nonpayable",
      "type": "constructor"
    },
    {
      "anonymous": false,
      "inputs": [
        {
          "indexed": true,
          "internalType": "address",
          "name": "contributer",
          "type": "address"
        },
        {
          "indexed": false,
          "internalType": "uint256",
          "name": "amount",
          "type": "uint256"
        }
      ],
      "name": "UserContribute",
      "type": "event"
    },
    {
      "anonymous": false,
      "inputs": [
        {
          "indexed": true,
          "internalType": "address",
          "name": "recipent",
          "type": "address"
        }
      ],
      "name": "amountTransferedToRecipent",
      "type": "event"
    },
    {
      "anonymous": false,
      "inputs": [
        {
          "indexed": true,
          "internalType": "address",
          "name": "approver",
          "type": "address"
        }
      ],
      "name": "requestApproved",
      "type": "event"
    },
    {
      "anonymous": false,
      "inputs": [
        {
          "indexed": true,
          "internalType": "uint256",
          "name": "value",
          "type": "uint256"
        },
        {
          "indexed": false,
          "internalType": "address",
          "name": "recipient",
          "type": "address"
        }
      ],
      "name": "requestIsCreated",
      "type": "event"
    },
    {
      "inputs": [
        {
          "internalType": "uint256",
          "name": "_index",
          "type": "uint256"
        }
      ],
      "name": "approveRequest",
      "outputs": [],
      "stateMutability": "nonpayable",
      "type": "function"
    },
    {
      "inputs": [],
      "name": "contribute",
      "outputs": [],
      "stateMutability": "payable",
      "type": "function"
    },
    {
      "inputs": [
        {
          "internalType": "string",
          "name": "_discription",
          "type": "string"
        },
        {
          "internalType": "uint256",
          "name": "_value",
          "type": "uint256"
        },
        {
          "internalType": "address",
          "name": "_recipent",
          "type": "address"
        }
      ],
      "name": "createRequest",
      "outputs": [],
      "stateMutability": "nonpayable",
      "type": "function"
    },
    {
      "inputs": [
        {
          "internalType": "uint256",
          "name": "_index",
          "type": "uint256"
        }
      ],
      "name": "finalizeRequest",
      "outputs": [],
      "stateMutability": "nonpayable",
      "type": "function"
    },
    {
      "inputs": [],
      "name": "getApproverCounts",
      "outputs": [
        {
          "internalType": "uint256",
          "name": "",
          "type": "uint256"
        }
      ],
      "stateMutability": "view",
      "type": "function"
    },
    {
      "inputs": [],
      "name": "getManger",
      "outputs": [
        {
          "internalType": "address",
          "name": "",
          "type": "address"
        }
      ],
      "stateMutability": "view",
      "type": "function"
    },
    {
      "inputs": [],
      "name": "getMinimumContribution",
      "outputs": [
        {
          "internalType": "uint256",
          "name": "",
          "type": "uint256"
        }
      ],
      "stateMutability": "view",
      "type": "function"
    }
  ],
  "transactionHash": "0x6fc4f86620cb630d4d4c271e71e9027f9d37b637ec371e45355fde3840bf0265",
  "args": [
    "100000000000000000"
  ],
  "numDeployments": 1,
  "solcInputHash": "f30831c9036b1f5d66eadced2c5b9f7f",
  "bytecode": "0x60806040523480156200001157600080fd5b506040516200195e3803806200195e8339818101604052810190620000379190620000c5565b80600181905550336000806101000a81548173ffffffffffffffffffffffffffffffffffffffff021916908373ffffffffffffffffffffffffffffffffffffffff16021790555050620000f7565b600080fd5b6000819050919050565b6200009f816200008a565b8114620000ab57600080fd5b50565b600081519050620000bf8162000094565b92915050565b600060208284031215620000de57620000dd62000085565b5b6000620000ee84828501620000ae565b91505092915050565b61185780620001076000396000f3fe6080604052600436106100705760003560e01c80639a678fae1161004e5780639a678fae146100f2578063d7bb99ba1461011d578063d7d1bbdb14610127578063f84038b11461015057610070565b806303441006146100755780633b32637b1461009e5780638a9cfd55146100c9575b600080fd5b34801561008157600080fd5b5061009c60048036038101906100979190610c76565b61017b565b005b3480156100aa57600080fd5b506100b3610431565b6040516100c09190610ce4565b60405180910390f35b3480156100d557600080fd5b506100f060048036038101906100eb9190610e71565b61045a565b005b3480156100fe57600080fd5b506101076105cf565b6040516101149190610eef565b60405180910390f35b61012561061a565b005b34801561013357600080fd5b5061014e60048036038101906101499190610c76565b61075d565b005b34801561015c57600080fd5b50610165610a2b565b6040516101729190610eef565b60405180910390f35b60008054906101000a900473ffffffffffffffffffffffffffffffffffffffff1673ffffffffffffffffffffffffffffffffffffffff163373ffffffffffffffffffffffffffffffffffffffff1614610209576040517f08c379a000000000000000000000000000000000000000000000000000000000815260040161020090610f67565b60405180910390fd5b60006004828154811061021f5761021e610f87565b5b906000526020600020906005020190508060020160149054906101000a900460ff1615610281576040517f08c379a000000000000000000000000000000000000000000000000000000000815260040161027890611028565b60405180910390fd5b6002805461028f91906110a6565b8160030154116102d4576040517f08c379a00000000000000000000000000000000000000000000000000000000081526004016102cb90611149565b60405180910390fd5b60008160020160009054906101000a900473ffffffffffffffffffffffffffffffffffffffff1673ffffffffffffffffffffffffffffffffffffffff1682600101546040516103229061119a565b60006040518083038185875af1925050503d806000811461035f576040519150601f19603f3d011682016040523d82523d6000602084013e610364565b606091505b50509050806103a8576040517f08c379a000000000000000000000000000000000000000000000000000000000815260040161039f906111fb565b60405180910390fd5b60018260020160146101000a81548160ff0219169083151502179055508160020160009054906101000a900473ffffffffffffffffffffffffffffffffffffffff1673ffffffffffffffffffffffffffffffffffffffff167ff83464d489e616ff37596b85a1f0a5baa4e9868470f8a08c2407099c4e67021a60405160405180910390a2505050565b60008060009054906101000a900473ffffffffffffffffffffffffffffffffffffffff16905090565b60008054906101000a900473ffffffffffffffffffffffffffffffffffffffff1673ffffffffffffffffffffffffffffffffffffffff163373ffffffffffffffffffffffffffffffffffffffff16146104e8576040517f08c379a00000000000000000000000000000000000000000000000000000000081526004016104df90610f67565b60405180910390fd5b6000600460018160018154018082558091505003906000526020600020906005020190508381600001908161051d9190611432565b50828160010181905550818160020160006101000a81548173ffffffffffffffffffffffffffffffffffffffff021916908373ffffffffffffffffffffffffffffffffffffffff16021790555060008160020160146101000a81548160ff02191690831515021790555060008160030181905550827f861295fe65e789a64a76cb2628d38c451fb50274dca35541b89cdc928a0a2c29836040516105c19190610ce4565b60405180910390a250505050565b60006106126040518060400160405280600e81526020017f617070726f766572436f756e7473000000000000000000000000000000000000815250600254610a35565b600254905090565b60015434101561069d576106626040518060400160405280600881526020017f7265766572746564000000000000000000000000000000000000000000000000815250610ad1565b6040517f08c379a000000000000000000000000000000000000000000000000000000000815260040161069490611576565b60405180910390fd5b6001600360003373ffffffffffffffffffffffffffffffffffffffff1673ffffffffffffffffffffffffffffffffffffffff16815260200190815260200160002060006101000a81548160ff0219169083151502179055506002600081548092919061070890611596565b91905055503373ffffffffffffffffffffffffffffffffffffffff167f40f192ca898055a2cdc070e744229aee11726ff86ca93ea3d4fd0f0cae778b45346040516107539190610eef565b60405180910390a2565b600360003373ffffffffffffffffffffffffffffffffffffffff1673ffffffffffffffffffffffffffffffffffffffff16815260200190815260200160002060009054906101000a900460ff166107e9576040517f08c379a00000000000000000000000000000000000000000000000000000000081526004016107e090611650565b60405180910390fd5b6000600482815481106107ff576107fe610f87565b5b9060005260206000209060050201905061084d6040518060400160405280600781526020017f7265717565737400000000000000000000000000000000000000000000000000815250610ad1565b6108a48160040160003373ffffffffffffffffffffffffffffffffffffffff1673ffffffffffffffffffffffffffffffffffffffff16815260200190815260200160002060009054906101000a900460ff16610b6a565b8060040160003373ffffffffffffffffffffffffffffffffffffffff1673ffffffffffffffffffffffffffffffffffffffff16815260200190815260200160002060009054906101000a900460ff1615610933576040517f08c379a000000000000000000000000000000000000000000000000000000000815260040161092a906116e2565b60405180910390fd5b60018160040160003373ffffffffffffffffffffffffffffffffffffffff1673ffffffffffffffffffffffffffffffffffffffff16815260200190815260200160002060006101000a81548160ff0219169083151502179055506001816003015461099e9190611702565b81600301819055506109e46040518060400160405280600481526020017f646f656e00000000000000000000000000000000000000000000000000000000815250610ad1565b3373ffffffffffffffffffffffffffffffffffffffff167f54817f88e4a96e49f4f111de2e596ce9f4e5c372a826a45483764821cabf7e3c60405160405180910390a25050565b6000600154905090565b610acd8282604051602401610a4b929190611799565b6040516020818303038152906040527fb60e72cc000000000000000000000000000000000000000000000000000000007bffffffffffffffffffffffffffffffffffffffffffffffffffffffff19166020820180517bffffffffffffffffffffffffffffffffffffffffffffffffffffffff8381831617835250505050610c03565b5050565b610b6781604051602401610ae591906117c9565b6040516020818303038152906040527f41304fac000000000000000000000000000000000000000000000000000000007bffffffffffffffffffffffffffffffffffffffffffffffffffffffff19166020820180517bffffffffffffffffffffffffffffffffffffffffffffffffffffffff8381831617835250505050610c03565b50565b610c0081604051602401610b7e9190611806565b6040516020818303038152906040527f32458eed000000000000000000000000000000000000000000000000000000007bffffffffffffffffffffffffffffffffffffffffffffffffffffffff19166020820180517bffffffffffffffffffffffffffffffffffffffffffffffffffffffff8381831617835250505050610c03565b50565b60008151905060006a636f6e736f6c652e6c6f679050602083016000808483855afa5050505050565b6000604051905090565b600080fd5b600080fd5b6000819050919050565b610c5381610c40565b8114610c5e57600080fd5b50565b600081359050610c7081610c4a565b92915050565b600060208284031215610c8c57610c8b610c36565b5b6000610c9a84828501610c61565b91505092915050565b600073ffffffffffffffffffffffffffffffffffffffff82169050919050565b6000610cce82610ca3565b9050919050565b610cde81610cc3565b82525050565b6000602082019050610cf96000830184610cd5565b92915050565b600080fd5b600080fd5b6000601f19601f8301169050919050565b7f4e487b7100000000000000000000000000000000000000000000000000000000600052604160045260246000fd5b610d5282610d09565b810181811067ffffffffffffffff82111715610d7157610d70610d1a565b5b80604052505050565b6000610d84610c2c565b9050610d908282610d49565b919050565b600067ffffffffffffffff821115610db057610daf610d1a565b5b610db982610d09565b9050602081019050919050565b82818337600083830152505050565b6000610de8610de384610d95565b610d7a565b905082815260208101848484011115610e0457610e03610d04565b5b610e0f848285610dc6565b509392505050565b600082601f830112610e2c57610e2b610cff565b5b8135610e3c848260208601610dd5565b91505092915050565b610e4e81610cc3565b8114610e5957600080fd5b50565b600081359050610e6b81610e45565b92915050565b600080600060608486031215610e8a57610e89610c36565b5b600084013567ffffffffffffffff811115610ea857610ea7610c3b565b5b610eb486828701610e17565b9350506020610ec586828701610c61565b9250506040610ed686828701610e5c565b9150509250925092565b610ee981610c40565b82525050565b6000602082019050610f046000830184610ee0565b92915050565b600082825260208201905092915050565b7f43726f776446756e64696e675f4f6e6c794d616e61676572446f546869730000600082015250565b6000610f51601e83610f0a565b9150610f5c82610f1b565b602082019050919050565b60006020820190508181036000830152610f8081610f44565b9050919050565b7f4e487b7100000000000000000000000000000000000000000000000000000000600052603260045260246000fd5b7f43726f776446756e64696e675f52657175657374416c7265616479436f6d706560008201527f7465640000000000000000000000000000000000000000000000000000000000602082015250565b6000611012602383610f0a565b915061101d82610fb6565b604082019050919050565b6000602082019050818103600083015261104181611005565b9050919050565b7f4e487b7100000000000000000000000000000000000000000000000000000000600052601260045260246000fd5b7f4e487b7100000000000000000000000000000000000000000000000000000000600052601160045260246000fd5b60006110b182610c40565b91506110bc83610c40565b9250826110cc576110cb611048565b5b828204905092915050565b7f43726f776446756e64696e675f596f7543616e7446696e616c697a655265717560008201527f6573740000000000000000000000000000000000000000000000000000000000602082015250565b6000611133602383610f0a565b915061113e826110d7565b604082019050919050565b6000602082019050818103600083015261116281611126565b9050919050565b600081905092915050565b50565b6000611184600083611169565b915061118f82611174565b600082019050919050565b60006111a582611177565b9150819050919050565b7f43726f776446756e64696e675f5472616e736665724661696c65640000000000600082015250565b60006111e5601b83610f0a565b91506111f0826111af565b602082019050919050565b60006020820190508181036000830152611214816111d8565b9050919050565b600081519050919050565b7f4e487b7100000000000000000000000000000000000000000000000000000000600052602260045260246000fd5b6000600282049050600182168061126d57607f821691505b6020821081036112805761127f611226565b5b50919050565b60008190508160005260206000209050919050565b60006020601f8301049050919050565b600082821b905092915050565b6000600883026112e87fffffffffffffffffffffffffffffffffffffffffffffffffffffffffffffffff826112ab565b6112f286836112ab565b95508019841693508086168417925050509392505050565b6000819050919050565b600061132f61132a61132584610c40565b61130a565b610c40565b9050919050565b6000819050919050565b61134983611314565b61135d61135582611336565b8484546112b8565b825550505050565b600090565b611372611365565b61137d818484611340565b505050565b5b818110156113a15761139660008261136a565b600181019050611383565b5050565b601f8211156113e6576113b781611286565b6113c08461129b565b810160208510156113cf578190505b6113e36113db8561129b565b830182611382565b50505b505050565b600082821c905092915050565b6000611409600019846008026113eb565b1980831691505092915050565b600061142283836113f8565b9150826002028217905092915050565b61143b8261121b565b67ffffffffffffffff81111561145457611453610d1a565b5b61145e8254611255565b6114698282856113a5565b600060209050601f83116001811461149c576000841561148a578287015190505b6114948582611416565b8655506114fc565b601f1984166114aa86611286565b60005b828110156114d2578489015182556001820191506020850194506020810190506114ad565b868310156114ef57848901516114eb601f8916826113f8565b8355505b6001600288020188555050505b505050505050565b7f43726f776446756e64696e675f416d6f756e7449734c6573735468656e4d696e60008201527f696d756d436f6e747269627574696f6e00000000000000000000000000000000602082015250565b6000611560603083610f0a565b915061156b82611504565b604082019050919050565b6000602082019050818103600083015261158f81611553565b9050919050565b60006115a182610c40565b91507fffffffffffffffffffffffffffffffffffffffffffffffffffffffffffffffff82036115d3576115d2611077565b5b600182019050919050565b7f43726f776446756e64696e675f53656e64657249734e6f7441436f6e7472696260008201527f7574656400000000000000000000000000000000000000000000000000000000602082015250565b600061163a602483610f0a565b9150611645826115de565b604082019050919050565b600060208201905081810360008301526116698161162d565b9050919050565b7f43726f776446756e64696e675f53656e646572416c72656479566f746564546f60008201527f5265717565737400000000000000000000000000000000000000000000000000602082015250565b60006116cc602783610f0a565b91506116d782611670565b604082019050919050565b600060208201905081810360008301526116fb816116bf565b9050919050565b600061170d82610c40565b915061171883610c40565b92508282019050808211156117305761172f611077565b5b92915050565b60005b83811015611754578082015181840152602081019050611739565b60008484015250505050565b600061176b8261121b565b6117758185610f0a565b9350611785818560208601611736565b61178e81610d09565b840191505092915050565b600060408201905081810360008301526117b38185611760565b90506117c26020830184610ee0565b9392505050565b600060208201905081810360008301526117e38184611760565b905092915050565b60008115159050919050565b611800816117eb565b82525050565b600060208201905061181b60008301846117f7565b9291505056fea264697066735822122098465ab2a7512cc4394875fa0f7255028c086088a24b3695510598fe37ae5db064736f6c63430008110033",
  "devdoc": {
    "kind": "dev",
    "methods": {},
    "version": 1
  },
  "userdoc": {
    "kind": "user",
    "methods": {},
    "version": 1
  },
  "storageLayout": {
    "storage": [
      {
        "astId": 19,
        "contract": "contracts/CrowdFunding.sol:CrowdFunding",
        "label": "manager",
        "offset": 0,
        "slot": "0",
        "type": "t_address"
      },
      {
        "astId": 21,
        "contract": "contracts/CrowdFunding.sol:CrowdFunding",
        "label": "minmumContirbution",
        "offset": 0,
        "slot": "1",
        "type": "t_uint256"
      },
      {
        "astId": 23,
        "contract": "contracts/CrowdFunding.sol:CrowdFunding",
        "label": "approverCounts",
        "offset": 0,
        "slot": "2",
        "type": "t_uint256"
      },
      {
        "astId": 27,
        "contract": "contracts/CrowdFunding.sol:CrowdFunding",
        "label": "approver",
        "offset": 0,
        "slot": "3",
        "type": "t_mapping(t_address,t_bool)"
      },
      {
        "astId": 31,
        "contract": "contracts/CrowdFunding.sol:CrowdFunding",
        "label": "requests",
        "offset": 0,
        "slot": "4",
        "type": "t_array(t_struct(Request)17_storage)dyn_storage"
      }
    ],
    "types": {
      "t_address": {
        "encoding": "inplace",
        "label": "address",
        "numberOfBytes": "20"
      },
      "t_array(t_struct(Request)17_storage)dyn_storage": {
        "base": "t_struct(Request)17_storage",
        "encoding": "dynamic_array",
        "label": "struct CrowdFunding.Request[]",
        "numberOfBytes": "32"
      },
      "t_bool": {
        "encoding": "inplace",
        "label": "bool",
        "numberOfBytes": "1"
      },
      "t_mapping(t_address,t_bool)": {
        "encoding": "mapping",
        "key": "t_address",
        "label": "mapping(address => bool)",
        "numberOfBytes": "32",
        "value": "t_bool"
      },
      "t_string_storage": {
        "encoding": "bytes",
        "label": "string",
        "numberOfBytes": "32"
      },
      "t_struct(Request)17_storage": {
        "encoding": "inplace",
        "label": "struct CrowdFunding.Request",
        "members": [
          {
            "astId": 4,
            "contract": "contracts/CrowdFunding.sol:CrowdFunding",
            "label": "discription",
            "offset": 0,
            "slot": "0",
            "type": "t_string_storage"
          },
          {
            "astId": 6,
            "contract": "contracts/CrowdFunding.sol:CrowdFunding",
            "label": "value",
            "offset": 0,
            "slot": "1",
            "type": "t_uint256"
          },
          {
            "astId": 8,
            "contract": "contracts/CrowdFunding.sol:CrowdFunding",
            "label": "recipent",
            "offset": 0,
            "slot": "2",
            "type": "t_address"
          },
          {
            "astId": 10,
            "contract": "contracts/CrowdFunding.sol:CrowdFunding",
            "label": "completed",
            "offset": 20,
            "slot": "2",
            "type": "t_bool"
          },
          {
            "astId": 12,
            "contract": "contracts/CrowdFunding.sol:CrowdFunding",
            "label": "approvalsCount",
            "offset": 0,
            "slot": "3",
            "type": "t_uint256"
          },
          {
            "astId": 16,
            "contract": "contracts/CrowdFunding.sol:CrowdFunding",
            "label": "approvals",
            "offset": 0,
            "slot": "4",
            "type": "t_mapping(t_address,t_bool)"
          }
        ],
        "numberOfBytes": "160"
      },
      "t_uint256": {
        "encoding": "inplace",
        "label": "uint256",
        "numberOfBytes": "32"
      }
    }
  }
}